{
  "_format": "hh-sol-artifact-1",
  "contractName": "GenericNFTPumpContract",
  "sourceName": "contracts/GenericNFTPumpContract.sol",
  "abi": [
    {
      "inputs": [
        {
          "internalType": "string",
          "name": "contractName",
          "type": "string"
        },
        {
          "internalType": "string",
          "name": "contractSymbol",
          "type": "string"
        },
        {
          "internalType": "address",
          "name": "_vault",
          "type": "address"
        },
        {
          "internalType": "address",
          "name": "_signer",
          "type": "address"
        },
        {
          "internalType": "string",
          "name": "__baseTokenURI",
          "type": "string"
        },
        {
          "internalType": "string",
          "name": "_hiddenMetadataUri",
          "type": "string"
        },
        {
          "internalType": "address[]",
          "name": "_payees",
          "type": "address[]"
        },
        {
          "internalType": "uint256[]",
          "name": "_shares",
          "type": "uint256[]"
        }
      ],
      "stateMutability": "payable",
      "type": "constructor"
    },
    {
      "anonymous": false,
      "inputs": [
        {
          "indexed": true,
          "internalType": "address",
          "name": "owner",
          "type": "address"
        },
        {
          "indexed": true,
          "internalType": "address",
          "name": "approved",
          "type": "address"
        },
        {
          "indexed": true,
          "internalType": "uint256",
          "name": "tokenId",
          "type": "uint256"
        }
      ],
      "name": "Approval",
      "type": "event"
    },
    {
      "anonymous": false,
      "inputs": [
        {
          "indexed": true,
          "internalType": "address",
          "name": "owner",
          "type": "address"
        },
        {
          "indexed": true,
          "internalType": "address",
          "name": "operator",
          "type": "address"
        },
        {
          "indexed": false,
          "internalType": "bool",
          "name": "approved",
          "type": "bool"
        }
      ],
      "name": "ApprovalForAll",
      "type": "event"
    },
    {
      "anonymous": false,
      "inputs": [
        {
          "indexed": true,
          "internalType": "contract IERC20",
          "name": "token",
          "type": "address"
        },
        {
          "indexed": false,
          "internalType": "address",
          "name": "to",
          "type": "address"
        },
        {
          "indexed": false,
          "internalType": "uint256",
          "name": "amount",
          "type": "uint256"
        }
      ],
      "name": "ERC20PaymentReleased",
      "type": "event"
    },
    {
      "anonymous": false,
      "inputs": [
        {
          "indexed": true,
          "internalType": "address",
          "name": "previousOwner",
          "type": "address"
        },
        {
          "indexed": true,
          "internalType": "address",
          "name": "newOwner",
          "type": "address"
        }
      ],
      "name": "OwnershipTransferred",
      "type": "event"
    },
    {
      "anonymous": false,
      "inputs": [
        {
          "indexed": false,
          "internalType": "address",
          "name": "account",
          "type": "address"
        },
        {
          "indexed": false,
          "internalType": "uint256",
          "name": "shares",
          "type": "uint256"
        }
      ],
      "name": "PayeeAdded",
      "type": "event"
    },
    {
      "anonymous": false,
      "inputs": [
        {
          "indexed": false,
          "internalType": "address",
          "name": "from",
          "type": "address"
        },
        {
          "indexed": false,
          "internalType": "uint256",
          "name": "amount",
          "type": "uint256"
        }
      ],
      "name": "PaymentReceived",
      "type": "event"
    },
    {
      "anonymous": false,
      "inputs": [
        {
          "indexed": false,
          "internalType": "address",
          "name": "to",
          "type": "address"
        },
        {
          "indexed": false,
          "internalType": "uint256",
          "name": "amount",
          "type": "uint256"
        }
      ],
      "name": "PaymentReleased",
      "type": "event"
    },
    {
      "anonymous": false,
      "inputs": [
        {
          "indexed": true,
          "internalType": "address",
          "name": "from",
          "type": "address"
        },
        {
          "indexed": true,
          "internalType": "address",
          "name": "to",
          "type": "address"
        },
        {
          "indexed": true,
          "internalType": "uint256",
          "name": "tokenId",
          "type": "uint256"
        }
      ],
      "name": "Transfer",
      "type": "event"
    },
    {
      "inputs": [],
      "name": "Author",
      "outputs": [
        {
          "internalType": "string",
          "name": "",
          "type": "string"
        }
      ],
      "stateMutability": "view",
      "type": "function"
    },
    {
      "inputs": [],
      "name": "MAX_TOKENS",
      "outputs": [
        {
          "internalType": "uint256",
          "name": "",
          "type": "uint256"
        }
      ],
      "stateMutability": "view",
      "type": "function"
    },
    {
      "inputs": [],
      "name": "ProjectTeam",
      "outputs": [
        {
          "internalType": "string",
          "name": "",
          "type": "string"
        }
      ],
      "stateMutability": "view",
      "type": "function"
    },
    {
      "inputs": [
        {
          "internalType": "address",
          "name": "to",
          "type": "address"
        },
        {
          "internalType": "uint256",
          "name": "tokenId",
          "type": "uint256"
        }
      ],
      "name": "approve",
      "outputs": [],
      "stateMutability": "nonpayable",
      "type": "function"
    },
    {
      "inputs": [
        {
          "internalType": "address",
          "name": "owner",
          "type": "address"
        }
      ],
      "name": "balanceOf",
      "outputs": [
        {
          "internalType": "uint256",
          "name": "",
          "type": "uint256"
        }
      ],
      "stateMutability": "view",
      "type": "function"
    },
    {
      "inputs": [],
      "name": "baseExtension",
      "outputs": [
        {
          "internalType": "string",
          "name": "",
          "type": "string"
        }
      ],
      "stateMutability": "view",
      "type": "function"
    },
    {
      "inputs": [
        {
          "internalType": "uint256",
          "name": "tokenId",
          "type": "uint256"
        }
      ],
      "name": "burn",
      "outputs": [],
      "stateMutability": "nonpayable",
      "type": "function"
    },
    {
      "inputs": [
        {
          "internalType": "uint256",
          "name": "tokenId",
          "type": "uint256"
        }
      ],
      "name": "getApproved",
      "outputs": [
        {
          "internalType": "address",
          "name": "",
          "type": "address"
        }
      ],
      "stateMutability": "view",
      "type": "function"
    },
    {
      "inputs": [],
      "name": "hiddenMetadataUri",
      "outputs": [
        {
          "internalType": "string",
          "name": "",
          "type": "string"
        }
      ],
      "stateMutability": "view",
      "type": "function"
    },
    {
      "inputs": [
        {
          "internalType": "address",
          "name": "owner",
          "type": "address"
        },
        {
          "internalType": "address",
          "name": "operator",
          "type": "address"
        }
      ],
      "name": "isApprovedForAll",
      "outputs": [
        {
          "internalType": "bool",
          "name": "",
          "type": "bool"
        }
      ],
      "stateMutability": "view",
      "type": "function"
    },
    {
      "inputs": [],
      "name": "maxWhitelistPassMints",
      "outputs": [
        {
          "internalType": "uint256",
          "name": "",
          "type": "uint256"
        }
      ],
      "stateMutability": "view",
      "type": "function"
    },
    {
      "inputs": [],
      "name": "name",
      "outputs": [
        {
          "internalType": "string",
          "name": "",
          "type": "string"
        }
      ],
      "stateMutability": "view",
      "type": "function"
    },
    {
      "inputs": [
        {
          "internalType": "uint256",
          "name": "quantity",
          "type": "uint256"
        }
      ],
      "name": "openMint",
      "outputs": [],
      "stateMutability": "payable",
      "type": "function"
    },
    {
      "inputs": [],
      "name": "owner",
      "outputs": [
        {
          "internalType": "address",
          "name": "",
          "type": "address"
        }
      ],
      "stateMutability": "view",
      "type": "function"
    },
    {
      "inputs": [
        {
          "internalType": "uint256",
          "name": "tokenId",
          "type": "uint256"
        }
      ],
      "name": "ownerOf",
      "outputs": [
        {
          "internalType": "address",
          "name": "",
          "type": "address"
        }
      ],
      "stateMutability": "view",
      "type": "function"
    },
    {
      "inputs": [
        {
          "internalType": "uint256",
          "name": "index",
          "type": "uint256"
        }
      ],
      "name": "payee",
      "outputs": [
        {
          "internalType": "address",
          "name": "",
          "type": "address"
        }
      ],
      "stateMutability": "view",
      "type": "function"
    },
    {
      "inputs": [],
      "name": "privateMintIsOpen",
      "outputs": [
        {
          "internalType": "bool",
          "name": "",
          "type": "bool"
        }
      ],
      "stateMutability": "view",
      "type": "function"
    },
    {
      "inputs": [],
      "name": "publicMintIsOpen",
      "outputs": [
        {
          "internalType": "bool",
          "name": "",
          "type": "bool"
        }
      ],
      "stateMutability": "view",
      "type": "function"
    },
    {
      "inputs": [],
      "name": "publicMintMaxLimit",
      "outputs": [
        {
          "internalType": "uint256",
          "name": "",
          "type": "uint256"
        }
      ],
      "stateMutability": "view",
      "type": "function"
    },
    {
      "inputs": [
        {
          "internalType": "address payable",
          "name": "account",
          "type": "address"
        }
      ],
      "name": "release",
      "outputs": [],
      "stateMutability": "nonpayable",
      "type": "function"
    },
    {
      "inputs": [
        {
          "internalType": "contract IERC20",
          "name": "token",
          "type": "address"
        },
        {
          "internalType": "address",
          "name": "account",
          "type": "address"
        }
      ],
      "name": "release",
      "outputs": [],
      "stateMutability": "nonpayable",
      "type": "function"
    },
    {
      "inputs": [
        {
          "internalType": "contract IERC20",
          "name": "token",
          "type": "address"
        },
        {
          "internalType": "address",
          "name": "account",
          "type": "address"
        }
      ],
      "name": "released",
      "outputs": [
        {
          "internalType": "uint256",
          "name": "",
          "type": "uint256"
        }
      ],
      "stateMutability": "view",
      "type": "function"
    },
    {
      "inputs": [
        {
          "internalType": "address",
          "name": "account",
          "type": "address"
        }
      ],
      "name": "released",
      "outputs": [
        {
          "internalType": "uint256",
          "name": "",
          "type": "uint256"
        }
      ],
      "stateMutability": "view",
      "type": "function"
    },
    {
      "inputs": [],
      "name": "renounceOwnership",
      "outputs": [],
      "stateMutability": "nonpayable",
      "type": "function"
    },
    {
      "inputs": [],
      "name": "revealed",
      "outputs": [
        {
          "internalType": "bool",
          "name": "",
          "type": "bool"
        }
      ],
      "stateMutability": "view",
      "type": "function"
    },
    {
      "inputs": [
        {
          "internalType": "address",
          "name": "from",
          "type": "address"
        },
        {
          "internalType": "address",
          "name": "to",
          "type": "address"
        },
        {
          "internalType": "uint256",
          "name": "tokenId",
          "type": "uint256"
        }
      ],
      "name": "safeTransferFrom",
      "outputs": [],
      "stateMutability": "nonpayable",
      "type": "function"
    },
    {
      "inputs": [
        {
          "internalType": "address",
          "name": "from",
          "type": "address"
        },
        {
          "internalType": "address",
          "name": "to",
          "type": "address"
        },
        {
          "internalType": "uint256",
          "name": "tokenId",
          "type": "uint256"
        },
        {
          "internalType": "bytes",
          "name": "_data",
          "type": "bytes"
        }
      ],
      "name": "safeTransferFrom",
      "outputs": [],
      "stateMutability": "nonpayable",
      "type": "function"
    },
    {
      "inputs": [
        {
          "internalType": "address",
          "name": "operator",
          "type": "address"
        },
        {
          "internalType": "bool",
          "name": "approved",
          "type": "bool"
        }
      ],
      "name": "setApprovalForAll",
      "outputs": [],
      "stateMutability": "nonpayable",
      "type": "function"
    },
    {
      "inputs": [
        {
          "internalType": "string",
          "name": "_baseExtension",
          "type": "string"
        }
      ],
      "name": "setBaseExtension",
      "outputs": [],
      "stateMutability": "nonpayable",
      "type": "function"
    },
    {
      "inputs": [
        {
          "internalType": "string",
          "name": "newBaseURI",
          "type": "string"
        }
      ],
      "name": "setBaseURI",
      "outputs": [],
      "stateMutability": "nonpayable",
      "type": "function"
    },
    {
      "inputs": [
        {
          "internalType": "uint256",
          "name": "amount",
          "type": "uint256"
        }
      ],
      "name": "setFreeMints",
      "outputs": [],
      "stateMutability": "nonpayable",
      "type": "function"
    },
    {
      "inputs": [
        {
          "internalType": "string",
          "name": "_hiddenMetadataUri",
          "type": "string"
        }
      ],
      "name": "setHiddenMetadataUri",
      "outputs": [],
      "stateMutability": "nonpayable",
      "type": "function"
    },
    {
      "inputs": [
        {
          "internalType": "uint256",
          "name": "newPrice",
          "type": "uint256"
        },
        {
          "internalType": "uint256",
          "name": "newWhitelistTokenPrice",
          "type": "uint256"
        },
        {
          "internalType": "uint256",
          "name": "setOpenMintLimit",
          "type": "uint256"
        },
        {
          "internalType": "uint256",
          "name": "setWhistlistPassMintLimit",
          "type": "uint256"
        },
        {
          "internalType": "bool",
          "name": "setPublicMintState",
          "type": "bool"
        },
        {
          "internalType": "bool",
          "name": "setPrivateMintState",
          "type": "bool"
        }
      ],
      "name": "setParams",
      "outputs": [],
      "stateMutability": "nonpayable",
      "type": "function"
    },
    {
      "inputs": [
        {
          "internalType": "bool",
          "name": "_state",
          "type": "bool"
        }
      ],
      "name": "setRevealed",
      "outputs": [],
      "stateMutability": "nonpayable",
      "type": "function"
    },
    {
      "inputs": [
        {
          "internalType": "address",
          "name": "newSigner",
          "type": "address"
        }
      ],
      "name": "setSignerAddress",
      "outputs": [],
      "stateMutability": "nonpayable",
      "type": "function"
    },
    {
      "inputs": [
        {
          "internalType": "uint256",
          "name": "newPrice",
          "type": "uint256"
        }
      ],
      "name": "setTokenPrice",
      "outputs": [],
      "stateMutability": "nonpayable",
      "type": "function"
    },
    {
      "inputs": [
        {
          "internalType": "uint256",
          "name": "newMintLimit",
          "type": "uint256"
        }
      ],
      "name": "setTransactionMintLimit",
      "outputs": [],
      "stateMutability": "nonpayable",
      "type": "function"
    },
    {
      "inputs": [
        {
          "internalType": "address",
          "name": "newVault",
          "type": "address"
        }
      ],
      "name": "setVaultAddress",
      "outputs": [],
      "stateMutability": "nonpayable",
      "type": "function"
    },
    {
      "inputs": [
        {
          "internalType": "uint256",
          "name": "newprivateMintLimit",
          "type": "uint256"
        }
      ],
      "name": "setWhitelistTransactionMintLimit",
      "outputs": [],
      "stateMutability": "nonpayable",
      "type": "function"
    },
    {
      "inputs": [
        {
          "internalType": "address",
          "name": "account",
          "type": "address"
        }
      ],
      "name": "shares",
      "outputs": [
        {
          "internalType": "uint256",
          "name": "",
          "type": "uint256"
        }
      ],
      "stateMutability": "view",
      "type": "function"
    },
    {
      "inputs": [
        {
          "internalType": "bytes4",
          "name": "interfaceId",
          "type": "bytes4"
        }
      ],
      "name": "supportsInterface",
      "outputs": [
        {
          "internalType": "bool",
          "name": "",
          "type": "bool"
        }
      ],
      "stateMutability": "view",
      "type": "function"
    },
    {
      "inputs": [],
      "name": "symbol",
      "outputs": [
        {
          "internalType": "string",
          "name": "",
          "type": "string"
        }
      ],
      "stateMutability": "view",
      "type": "function"
    },
    {
      "inputs": [
        {
          "internalType": "address",
          "name": "to",
          "type": "address"
        },
        {
          "internalType": "uint256",
          "name": "amount",
          "type": "uint256"
        }
      ],
      "name": "teamMint",
      "outputs": [],
      "stateMutability": "nonpayable",
      "type": "function"
    },
    {
      "inputs": [],
      "name": "togglePresaleMint",
      "outputs": [],
      "stateMutability": "nonpayable",
      "type": "function"
    },
    {
      "inputs": [],
      "name": "togglePublicMint",
      "outputs": [],
      "stateMutability": "nonpayable",
      "type": "function"
    },
    {
      "inputs": [],
      "name": "tokenPrice",
      "outputs": [
        {
          "internalType": "uint256",
          "name": "",
          "type": "uint256"
        }
      ],
      "stateMutability": "view",
      "type": "function"
    },
    {
      "inputs": [
        {
          "internalType": "uint256",
          "name": "_tokenId",
          "type": "uint256"
        }
      ],
      "name": "tokenURI",
      "outputs": [
        {
          "internalType": "string",
          "name": "",
          "type": "string"
        }
      ],
      "stateMutability": "view",
      "type": "function"
    },
    {
      "inputs": [
        {
          "internalType": "contract IERC20",
          "name": "token",
          "type": "address"
        }
      ],
      "name": "totalReleased",
      "outputs": [
        {
          "internalType": "uint256",
          "name": "",
          "type": "uint256"
        }
      ],
      "stateMutability": "view",
      "type": "function"
    },
    {
      "inputs": [],
      "name": "totalReleased",
      "outputs": [
        {
          "internalType": "uint256",
          "name": "",
          "type": "uint256"
        }
      ],
      "stateMutability": "view",
      "type": "function"
    },
    {
      "inputs": [],
      "name": "totalShares",
      "outputs": [
        {
          "internalType": "uint256",
          "name": "",
          "type": "uint256"
        }
      ],
      "stateMutability": "view",
      "type": "function"
    },
    {
      "inputs": [],
      "name": "totalSupply",
      "outputs": [
        {
          "internalType": "uint256",
          "name": "",
          "type": "uint256"
        }
      ],
      "stateMutability": "view",
      "type": "function"
    },
    {
      "inputs": [
        {
          "internalType": "address",
          "name": "from",
          "type": "address"
        },
        {
          "internalType": "address",
          "name": "to",
          "type": "address"
        },
        {
          "internalType": "uint256",
          "name": "tokenId",
          "type": "uint256"
        }
      ],
      "name": "transferFrom",
      "outputs": [],
      "stateMutability": "nonpayable",
      "type": "function"
    },
    {
      "inputs": [
        {
          "internalType": "address",
          "name": "newOwner",
          "type": "address"
        }
      ],
      "name": "transferOwnership",
      "outputs": [],
      "stateMutability": "nonpayable",
      "type": "function"
    },
    {
      "inputs": [
        {
          "internalType": "uint8",
          "name": "quantity",
          "type": "uint8"
        },
        {
          "internalType": "uint8",
          "name": "claimable",
          "type": "uint8"
        },
        {
          "components": [
            {
              "internalType": "bytes32",
              "name": "r",
              "type": "bytes32"
            },
            {
              "internalType": "bytes32",
              "name": "s",
              "type": "bytes32"
            },
            {
              "internalType": "uint8",
              "name": "v",
              "type": "uint8"
            }
          ],
          "internalType": "struct GenericNFTPumpContract.WhitelistClaimPass",
          "name": "whitelistClaimPass",
          "type": "tuple"
        }
      ],
      "name": "whitelistClaimMint",
      "outputs": [],
      "stateMutability": "payable",
      "type": "function"
    },
    {
      "inputs": [],
      "name": "whitelistMintMaxLimit",
      "outputs": [
        {
          "internalType": "uint256",
          "name": "",
          "type": "uint256"
        }
      ],
      "stateMutability": "view",
      "type": "function"
    },
    {
      "inputs": [],
      "name": "whitelistTokenPrice",
      "outputs": [
        {
          "internalType": "uint256",
          "name": "",
          "type": "uint256"
        }
      ],
      "stateMutability": "view",
      "type": "function"
    },
    {
      "inputs": [],
      "name": "withdraw",
      "outputs": [],
      "stateMutability": "nonpayable",
      "type": "function"
    },
    {
      "stateMutability": "payable",
      "type": "receive"
    }
  ],
  "bytecode": "0x60646011819055601255600060138190556014556103846015556016805462ffffff191661010017905560c06040526005608081905264173539b7b760d91b60a09081526200005291601891906200088d565b50601a80546001600160a01b0319908116909155601b8054909116905560408051808201909152600c8082526b0e8cac6d0dee6d0d25ccae8d60a31b6020909201918252620000a491601d916200088d565b50604080516020810191829052600090819052620000c591601e916200088d565b5060405162004c0f38038062004c0f833981016040819052620000e89162000b3c565b81818989620000f73362000301565b81516200010c9060019060208501906200088d565b508051620001229060029060208401906200088d565b5050508051825114620001975760405162461bcd60e51b815260206004820152603260248201527f5061796d656e7453706c69747465723a2070617965657320616e6420736861726044820152710cae640d8cadccee8d040dad2e6dac2e8c6d60731b60648201526084015b60405180910390fd5b6000825111620001ea5760405162461bcd60e51b815260206004820152601a60248201527f5061796d656e7453706c69747465723a206e6f2070617965657300000000000060448201526064016200018e565b60005b825181101562000256576200024183828151811062000210576200021062000c6a565b60200260200101518383815181106200022d576200022d62000c6a565b60200260200101516200035160201b60201c565b806200024d8162000c96565b915050620001ed565b5050601a80546001600160a01b03199081166001600160a01b038a811691909117909255601b805490911691881691909117905550620002a3600f6200053f602090811b620026b317901c565b620002ba600f6200053f60201b620026b31760201c565b620002c733600162000548565b8351620002dc9060179060208701906200088d565b508251620002f29060199060208601906200088d565b50505050505050505062000d95565b600080546001600160a01b038381166001600160a01b0319831681178455604051919092169283917f8be0079c531659141344cd1fd0a4f28419497f9722a3daafe3b4186f6b6457e09190a35050565b6001600160a01b038216620003be5760405162461bcd60e51b815260206004820152602c60248201527f5061796d656e7453706c69747465723a206163636f756e74206973207468652060448201526b7a65726f206164647265737360a01b60648201526084016200018e565b60008111620004105760405162461bcd60e51b815260206004820152601d60248201527f5061796d656e7453706c69747465723a2073686172657320617265203000000060448201526064016200018e565b6001600160a01b0382166000908152600a6020526040902054156200048c5760405162461bcd60e51b815260206004820152602b60248201527f5061796d656e7453706c69747465723a206163636f756e7420616c726561647960448201526a206861732073686172657360a81b60648201526084016200018e565b600c8054600181019091557fdf6966c971051c3d54ec59162606531493a51404a002842f56009d7e5cf4a8c70180546001600160a01b0319166001600160a01b0384169081179091556000908152600a60205260409020819055600854620004f690829062000cb4565b600855604080516001600160a01b0384168152602081018390527f40c340f65e17194d14ddddb073d3c9f888e3cb52b5aae0c6c7706b4fbc905fac910160405180910390a15050565b80546001019055565b6200056a8282604051806020016040528060008152506200056e60201b60201c565b5050565b6200057a8383620005e6565b6200058960008484846200072e565b620005e15760405162461bcd60e51b8152602060048201526032602482015260008051602062004bef83398151915260448201527131b2b4bb32b91034b6b83632b6b2b73a32b960711b60648201526084016200018e565b505050565b6001600160a01b0382166200063e5760405162461bcd60e51b815260206004820181905260248201527f4552433732313a206d696e7420746f20746865207a65726f206164647265737360448201526064016200018e565b6000818152600360205260409020546001600160a01b031615620006a55760405162461bcd60e51b815260206004820152601c60248201527f4552433732313a20746f6b656e20616c7265616479206d696e7465640000000060448201526064016200018e565b6001600160a01b0382166000908152600460205260408120805460019290620006d090849062000cb4565b909155505060008181526003602052604080822080546001600160a01b0319166001600160a01b03861690811790915590518392907fddf252ad1be2c89b69c2b068fc378daa952ba7f163c4a11628f55a4df523b3ef908290a45050565b60006200074f846001600160a01b03166200088760201b620026bc1760201c565b156200087b57604051630a85bd0160e11b81526001600160a01b0385169063150b7a02906200078990339089908890889060040162000ccf565b6020604051808303816000875af1925050508015620007c7575060408051601f3d908101601f19168201909252620007c49181019062000d25565b60015b62000860573d808015620007f8576040519150601f19603f3d011682016040523d82523d6000602084013e620007fd565b606091505b508051620008585760405162461bcd60e51b8152602060048201526032602482015260008051602062004bef83398151915260448201527131b2b4bb32b91034b6b83632b6b2b73a32b960711b60648201526084016200018e565b805181602001fd5b6001600160e01b031916630a85bd0160e11b1490506200087f565b5060015b949350505050565b3b151590565b8280546200089b9062000d58565b90600052602060002090601f016020900481019282620008bf57600085556200090a565b82601f10620008da57805160ff19168380011785556200090a565b828001600101855582156200090a579182015b828111156200090a578251825591602001919060010190620008ed565b50620009189291506200091c565b5090565b5b808211156200091857600081556001016200091d565b634e487b7160e01b600052604160045260246000fd5b604051601f8201601f191681016001600160401b038111828210171562000974576200097462000933565b604052919050565b60005b83811015620009995781810151838201526020016200097f565b83811115620009a9576000848401525b50505050565b600082601f830112620009c157600080fd5b81516001600160401b03811115620009dd57620009dd62000933565b620009f2601f8201601f191660200162000949565b81815284602083860101111562000a0857600080fd5b6200087f8260208301602087016200097c565b80516001600160a01b038116811462000a3357600080fd5b919050565b60006001600160401b0382111562000a545762000a5462000933565b5060051b60200190565b600082601f83011262000a7057600080fd5b8151602062000a8962000a838362000a38565b62000949565b82815260059290921b8401810191818101908684111562000aa957600080fd5b8286015b8481101562000acf5762000ac18162000a1b565b835291830191830162000aad565b509695505050505050565b600082601f83011262000aec57600080fd5b8151602062000aff62000a838362000a38565b82815260059290921b8401810191818101908684111562000b1f57600080fd5b8286015b8481101562000acf578051835291830191830162000b23565b600080600080600080600080610100898b03121562000b5a57600080fd5b88516001600160401b038082111562000b7257600080fd5b62000b808c838d01620009af565b995060208b015191508082111562000b9757600080fd5b62000ba58c838d01620009af565b985062000bb560408c0162000a1b565b975062000bc560608c0162000a1b565b965060808b015191508082111562000bdc57600080fd5b62000bea8c838d01620009af565b955060a08b015191508082111562000c0157600080fd5b62000c0f8c838d01620009af565b945060c08b015191508082111562000c2657600080fd5b62000c348c838d0162000a5e565b935060e08b015191508082111562000c4b57600080fd5b5062000c5a8b828c0162000ada565b9150509295985092959890939650565b634e487b7160e01b600052603260045260246000fd5b634e487b7160e01b600052601160045260246000fd5b600060001982141562000cad5762000cad62000c80565b5060010190565b6000821982111562000cca5762000cca62000c80565b500190565b600060018060a01b03808716835280861660208401525083604083015260806060830152825180608084015262000d0e8160a08501602087016200097c565b601f01601f19169190910160a00195945050505050565b60006020828403121562000d3857600080fd5b81516001600160e01b03198116811462000d5157600080fd5b9392505050565b600181811c9082168062000d6d57607f821691505b6020821081141562000d8f57634e487b7160e01b600052602260045260246000fd5b50919050565b613e4a8062000da56000396000f3fe60806040526004361061037a5760003560e01c80637ff9b596116101d1578063ce7c2ac211610102578063e7db8fb0116100a0578063f2fde38b1161006f578063f2fde38b14610a69578063f47c84c514610a89578063fa468ead14610aa0578063fe471ed514610ab657600080fd5b8063e7db8fb0146109cc578063e985e9c5146109ec578063ed4dcde614610a35578063ee28de5214610a4a57600080fd5b8063da3ef23f116100dc578063da3ef23f14610961578063e0a8085314610981578063e33b7de3146109a1578063e4a42551146109b657600080fd5b8063ce7c2ac2146108df578063d25f404714610915578063d79779b21461092b57600080fd5b8063a15d60c51161016f578063add5a4fa11610149578063add5a4fa1461086a578063b88d4fde1461088a578063c6682862146108aa578063c87b56dd146108bf57600080fd5b8063a15d60c51461081b578063a22cb46514610835578063a45ba8e71461085557600080fd5b80638da5cb5b116101ab5780638da5cb5b1461079f57806395d89b41146107bd5780639852595c146107d2578063a02d1d5a1461080857600080fd5b80637ff9b5961461074957806385535cc51461075f5780638b83209b1461077f57600080fd5b80633ccfd60b116102ab5780634fdd43cb116102495780636352211e116102235780636352211e146106d45780636a61e5fc146106f457806370a0823114610714578063715018a61461073457600080fd5b80634fdd43cb14610674578063518302271461069457806355f804b3146106b457600080fd5b806342842e0e1161028557806342842e0e146106015780634287084f1461062157806342966c681461063457806348b750441461065457600080fd5b80633ccfd60b146105915780634047638d146105a6578063406072a9146105bb57600080fd5b806318160ddd1161031857806323b872dd116102f257806323b872dd146105315780632cb15fd314610551578063353f849e146105675780633a98ef391461057c57600080fd5b806318160ddd146104d957806319165587146104fc57806320b2af521461051c57600080fd5b8063081812fc11610354578063081812fc14610441578063095ea7b3146104795780630d738aeb146104995780630f1e6828146104b957600080fd5b806301ffc9a7146103c8578063046dc166146103fd57806306fdde031461041f57600080fd5b366103c3577f6ef95f06320e7a25a04a175ca677b7052bdd97131872c2192525a629f51be77033604080516001600160a01b0390921682523460208301520160405180910390a1005b600080fd5b3480156103d457600080fd5b506103e86103e3366004613749565b610ad6565b60405190151581526020015b60405180910390f35b34801561040957600080fd5b5061041d61041836600461377b565b610bbb565b005b34801561042b57600080fd5b50610434610c49565b6040516103f491906137f0565b34801561044d57600080fd5b5061046161045c366004613803565b610cdb565b6040516001600160a01b0390911681526020016103f4565b34801561048557600080fd5b5061041d61049436600461381c565b610d81565b3480156104a557600080fd5b5061041d6104b4366004613803565b610eb3565b3480156104c557600080fd5b5061041d6104d4366004613803565b610f12565b3480156104e557600080fd5b506104ee610f71565b6040519081526020016103f4565b34801561050857600080fd5b5061041d61051736600461377b565b610f8d565b34801561052857600080fd5b50610434611167565b34801561053d57600080fd5b5061041d61054c366004613848565b6111f5565b34801561055d57600080fd5b506104ee60155481565b34801561057357600080fd5b5061043461127c565b34801561058857600080fd5b506008546104ee565b34801561059d57600080fd5b5061041d611289565b3480156105b257600080fd5b5061041d61131f565b3480156105c757600080fd5b506104ee6105d6366004613889565b6001600160a01b039182166000908152600e6020908152604080832093909416825291909152205490565b34801561060d57600080fd5b5061041d61061c366004613848565b61138d565b61041d61062f366004613803565b6113a8565b34801561064057600080fd5b5061041d61064f366004613803565b611561565b34801561066057600080fd5b5061041d61066f366004613889565b6115c4565b34801561068057600080fd5b5061041d61068f36600461394e565b611862565b3480156106a057600080fd5b506016546103e89062010000900460ff1681565b3480156106c057600080fd5b5061041d6106cf36600461394e565b6118d3565b3480156106e057600080fd5b506104616106ef366004613803565b611940565b34801561070057600080fd5b5061041d61070f366004613803565b6119cb565b34801561072057600080fd5b506104ee61072f36600461377b565b611a2a565b34801561074057600080fd5b5061041d611ac4565b34801561075557600080fd5b506104ee60135481565b34801561076b57600080fd5b5061041d61077a36600461377b565b611b2a565b34801561078b57600080fd5b5061046161079a366004613803565b611bb3565b3480156107ab57600080fd5b506000546001600160a01b0316610461565b3480156107c957600080fd5b50610434611be3565b3480156107de57600080fd5b506104ee6107ed36600461377b565b6001600160a01b03166000908152600b602052604090205490565b61041d6108163660046139ad565b611bf2565b34801561082757600080fd5b506016546103e89060ff1681565b34801561084157600080fd5b5061041d610850366004613a6e565b611fb3565b34801561086157600080fd5b50610434611fbe565b34801561087657600080fd5b5061041d61088536600461381c565b611fcb565b34801561089657600080fd5b5061041d6108a5366004613a9c565b6120d9565b3480156108b657600080fd5b50610434612161565b3480156108cb57600080fd5b506104346108da366004613803565b61216e565b3480156108eb57600080fd5b506104ee6108fa36600461377b565b6001600160a01b03166000908152600a602052604090205490565b34801561092157600080fd5b506104ee60115481565b34801561093757600080fd5b506104ee61094636600461377b565b6001600160a01b03166000908152600d602052604090205490565b34801561096d57600080fd5b5061041d61097c36600461394e565b6122fc565b34801561098d57600080fd5b5061041d61099c366004613b1c565b612369565b3480156109ad57600080fd5b506009546104ee565b3480156109c257600080fd5b506104ee60125481565b3480156109d857600080fd5b5061041d6109e7366004613803565b6123fb565b3480156109f857600080fd5b506103e8610a07366004613889565b6001600160a01b03918216600090815260066020908152604080832093909416825291909152205460ff1690565b348015610a4157600080fd5b5061041d6124ad565b348015610a5657600080fd5b506016546103e890610100900460ff1681565b348015610a7557600080fd5b5061041d610a8436600461377b565b612524565b348015610a9557600080fd5b506104ee624c4b4081565b348015610aac57600080fd5b506104ee60145481565b348015610ac257600080fd5b5061041d610ad1366004613b39565b612603565b60007fffffffff0000000000000000000000000000000000000000000000000000000082167f80ac58cd000000000000000000000000000000000000000000000000000000001480610b6957507fffffffff0000000000000000000000000000000000000000000000000000000082167f5b5e139f00000000000000000000000000000000000000000000000000000000145b80610bb557507f01ffc9a7000000000000000000000000000000000000000000000000000000007fffffffff000000000000000000000000000000000000000000000000000000008316145b92915050565b6000546001600160a01b03163314610c1a5760405162461bcd60e51b815260206004820181905260248201527f4f776e61626c653a2063616c6c6572206973206e6f7420746865206f776e657260448201526064015b60405180910390fd5b601b805473ffffffffffffffffffffffffffffffffffffffff19166001600160a01b0392909216919091179055565b606060018054610c5890613b97565b80601f0160208091040260200160405190810160405280929190818152602001828054610c8490613b97565b8015610cd15780601f10610ca657610100808354040283529160200191610cd1565b820191906000526020600020905b815481529060010190602001808311610cb457829003601f168201915b5050505050905090565b6000818152600360205260408120546001600160a01b0316610d655760405162461bcd60e51b815260206004820152602c60248201527f4552433732313a20617070726f76656420717565727920666f72206e6f6e657860448201527f697374656e7420746f6b656e00000000000000000000000000000000000000006064820152608401610c11565b506000908152600560205260409020546001600160a01b031690565b6000610d8c82611940565b9050806001600160a01b0316836001600160a01b03161415610e165760405162461bcd60e51b815260206004820152602160248201527f4552433732313a20617070726f76616c20746f2063757272656e74206f776e6560448201527f72000000000000000000000000000000000000000000000000000000000000006064820152608401610c11565b336001600160a01b0382161480610e325750610e328133610a07565b610ea45760405162461bcd60e51b815260206004820152603860248201527f4552433732313a20617070726f76652063616c6c6572206973206e6f74206f7760448201527f6e6572206e6f7220617070726f76656420666f7220616c6c00000000000000006064820152608401610c11565b610eae83836126c2565b505050565b6000546001600160a01b03163314610f0d5760405162461bcd60e51b815260206004820181905260248201527f4f776e61626c653a2063616c6c6572206973206e6f7420746865206f776e65726044820152606401610c11565b601255565b6000546001600160a01b03163314610f6c5760405162461bcd60e51b815260206004820181905260248201527f4f776e61626c653a2063616c6c6572206973206e6f7420746865206f776e65726044820152606401610c11565b601155565b60006001610f7e600f5490565b610f889190613be8565b905090565b6001600160a01b0381166000908152600a60205260409020546110185760405162461bcd60e51b815260206004820152602660248201527f5061796d656e7453706c69747465723a206163636f756e7420686173206e6f2060448201527f73686172657300000000000000000000000000000000000000000000000000006064820152608401610c11565b600061102360095490565b61102d9047613bff565b9050600061105a8383611055866001600160a01b03166000908152600b602052604090205490565b61273d565b9050806110cf5760405162461bcd60e51b815260206004820152602b60248201527f5061796d656e7453706c69747465723a206163636f756e74206973206e6f742060448201527f647565207061796d656e740000000000000000000000000000000000000000006064820152608401610c11565b6001600160a01b0383166000908152600b6020526040812080548392906110f7908490613bff565b9250508190555080600960008282546111109190613bff565b9091555061112090508382612783565b604080516001600160a01b0385168152602081018390527fdf20fd1e76bc69d672e4814fafb2c449bba3a5369d8359adf9e05e6fde87b056910160405180910390a1505050565b601d805461117490613b97565b80601f01602080910402602001604051908101604052809291908181526020018280546111a090613b97565b80156111ed5780601f106111c2576101008083540402835291602001916111ed565b820191906000526020600020905b8154815290600101906020018083116111d057829003601f168201915b505050505081565b6111ff338261289c565b6112715760405162461bcd60e51b815260206004820152603160248201527f4552433732313a207472616e736665722063616c6c6572206973206e6f74206f60448201527f776e6572206e6f7220617070726f7665640000000000000000000000000000006064820152608401610c11565b610eae8383836129a3565b601e805461117490613b97565b6000546001600160a01b031633146112e35760405162461bcd60e51b815260206004820181905260248201527f4f776e61626c653a2063616c6c6572206973206e6f7420746865206f776e65726044820152606401610c11565b601a546040516001600160a01b03909116904780156108fc02916000818181858888f1935050505015801561131c573d6000803e3d6000fd5b50565b6000546001600160a01b031633146113795760405162461bcd60e51b815260206004820181905260248201527f4f776e61626c653a2063616c6c6572206973206e6f7420746865206f776e65726044820152606401610c11565b6016805460ff19811660ff90911615179055565b610eae838383604051806020016040528060008152506120d9565b34816013546113b79190613c17565b11156114055760405162461bcd60e51b815260206004820152601560248201527f4e6f7420656e6f7567682065746865722073656e7400000000000000000000006044820152606401610c11565b6000611410600f5490565b60165490915060ff16151560011461146a5760405162461bcd60e51b815260206004820152601260248201527f5075626c6963204d696e7420436c6f73656400000000000000000000000000006044820152606401610c11565b6011548211156114bc5760405162461bcd60e51b815260206004820152601560248201527f4d696e7420616d6f756e7420746f6f206c6172676500000000000000000000006044820152606401610c11565b624c4b406114cb600183613be8565b6114d59084613bff565b11156115235760405162461bcd60e51b815260206004820152601b60248201527f4e6f7420656e6f75676820746f6b656e732072656d61696e696e6700000000006044820152606401610c11565b60005b82811015610eae5761153c600f80546001019055565b61154f3361154a8385613bff565b612b7d565b8061155981613c36565b915050611526565b6000546001600160a01b031633146115bb5760405162461bcd60e51b815260206004820181905260248201527f4f776e61626c653a2063616c6c6572206973206e6f7420746865206f776e65726044820152606401610c11565b61131c81612b97565b6001600160a01b0381166000908152600a602052604090205461164f5760405162461bcd60e51b815260206004820152602660248201527f5061796d656e7453706c69747465723a206163636f756e7420686173206e6f2060448201527f73686172657300000000000000000000000000000000000000000000000000006064820152608401610c11565b6001600160a01b0382166000908152600d60205260408120546040517f70a082310000000000000000000000000000000000000000000000000000000081523060048201526001600160a01b038516906370a0823190602401602060405180830381865afa1580156116c5573d6000803e3d6000fd5b505050506040513d601f19601f820116820180604052508101906116e99190613c51565b6116f39190613bff565b9050600061172c838361105587876001600160a01b039182166000908152600e6020908152604080832093909416825291909152205490565b9050806117a15760405162461bcd60e51b815260206004820152602b60248201527f5061796d656e7453706c69747465723a206163636f756e74206973206e6f742060448201527f647565207061796d656e740000000000000000000000000000000000000000006064820152608401610c11565b6001600160a01b038085166000908152600e60209081526040808320938716835292905290812080548392906117d8908490613bff565b90915550506001600160a01b0384166000908152600d602052604081208054839290611805908490613bff565b909155506118169050848483612ba0565b604080516001600160a01b038581168252602082018490528616917f3be5b7a71e84ed12875d241991c70855ac5817d847039e17a9d895c1ceb0f18a910160405180910390a250505050565b6000546001600160a01b031633146118bc5760405162461bcd60e51b815260206004820181905260248201527f4f776e61626c653a2063616c6c6572206973206e6f7420746865206f776e65726044820152606401610c11565b80516118cf90601990602084019061364c565b5050565b6000546001600160a01b0316331461192d5760405162461bcd60e51b815260206004820181905260248201527f4f776e61626c653a2063616c6c6572206973206e6f7420746865206f776e65726044820152606401610c11565b80516118cf90601790602084019061364c565b6000818152600360205260408120546001600160a01b031680610bb55760405162461bcd60e51b815260206004820152602960248201527f4552433732313a206f776e657220717565727920666f72206e6f6e657869737460448201527f656e7420746f6b656e00000000000000000000000000000000000000000000006064820152608401610c11565b6000546001600160a01b03163314611a255760405162461bcd60e51b815260206004820181905260248201527f4f776e61626c653a2063616c6c6572206973206e6f7420746865206f776e65726044820152606401610c11565b601355565b60006001600160a01b038216611aa85760405162461bcd60e51b815260206004820152602a60248201527f4552433732313a2062616c616e636520717565727920666f7220746865207a6560448201527f726f2061646472657373000000000000000000000000000000000000000000006064820152608401610c11565b506001600160a01b031660009081526004602052604090205490565b6000546001600160a01b03163314611b1e5760405162461bcd60e51b815260206004820181905260248201527f4f776e61626c653a2063616c6c6572206973206e6f7420746865206f776e65726044820152606401610c11565b611b286000612c20565b565b6000546001600160a01b03163314611b845760405162461bcd60e51b815260206004820181905260248201527f4f776e61626c653a2063616c6c6572206973206e6f7420746865206f776e65726044820152606401610c11565b601a805473ffffffffffffffffffffffffffffffffffffffff19166001600160a01b0392909216919091179055565b6000600c8281548110611bc857611bc8613c6a565b6000918252602090912001546001600160a01b031692915050565b606060028054610c5890613b97565b6040805160ff841660208083019190915233828401528251808303840181526060909201909252805191012082908290611c2c8183612c7d565b611c785760405162461bcd60e51b815260206004820152600c60248201527f496e76616c6964205061737300000000000000000000000000000000000000006044820152606401610c11565b348660ff16601454611c8a9190613c17565b1115611cd85760405162461bcd60e51b815260206004820152601560248201527f4e6f7420656e6f7567682065746865722073656e7400000000000000000000006044820152606401610c11565b6000611ce3600f5490565b60165490915060ff610100909104161515600114611d435760405162461bcd60e51b815260206004820152601160248201527f436c61696d204d696e7420436c6f7365640000000000000000000000000000006044820152606401610c11565b624c4b40611d52600183613be8565b611d5f9060ff8a16613bff565b1115611dad5760405162461bcd60e51b815260206004820152601b60248201527f4e6f7420656e6f75676820746f6b656e732072656d61696e696e6700000000006044820152606401610c11565b8560ff168760ff161115611e295760405162461bcd60e51b815260206004820152602d60248201527f4d696e74207175616e746974792063616e27742062652067726561746572207460448201527f68616e20636c61696d61626c65000000000000000000000000000000000000006064820152608401610c11565b60008760ff1611611ea25760405162461bcd60e51b815260206004820152602760248201527f4d696e74207175616e74697479206d757374206265206772656174657220746860448201527f616e207a65726f000000000000000000000000000000000000000000000000006064820152608401610c11565b6012548760ff161115611ef75760405162461bcd60e51b815260206004820152601760248201527f4d696e74207175616e7469747920746f6f206c617267650000000000000000006044820152606401610c11565b6015548760ff16611f0760105490565b611f119190613bff565b1115611f5f5760405162461bcd60e51b815260206004820152601f60248201527f4e6f7420656e6f7567682066726565206d696e74732072656d61696e696e67006044820152606401610c11565b60005b8760ff16811015611fa957611f7b600f80546001019055565b611f89601080546001019055565b611f973361154a8385613bff565b80611fa181613c36565b915050611f62565b5050505050505050565b6118cf338383612d65565b6019805461117490613b97565b6000546001600160a01b031633146120255760405162461bcd60e51b815260206004820181905260248201527f4f776e61626c653a2063616c6c6572206973206e6f7420746865206f776e65726044820152606401610c11565b6000612030600f5490565b9050624c4b4082612042600184613be8565b61204c9190613bff565b111561209a5760405162461bcd60e51b815260206004820152601b60248201527f4e6f7420656e6f75676820746f6b656e732072656d61696e696e6700000000006044820152606401610c11565b60005b828110156120d3576120b3600f80546001019055565b6120c18461154a8385613bff565b806120cb81613c36565b91505061209d565b50505050565b6120e3338361289c565b6121555760405162461bcd60e51b815260206004820152603160248201527f4552433732313a207472616e736665722063616c6c6572206973206e6f74206f60448201527f776e6572206e6f7220617070726f7665640000000000000000000000000000006064820152608401610c11565b6120d384848484612e34565b6018805461117490613b97565b6000818152600360205260409020546060906001600160a01b03166121fb5760405162461bcd60e51b815260206004820152602f60248201527f4552433732314d657461646174613a2055524920717565727920666f72206e6f60448201527f6e6578697374656e7420746f6b656e00000000000000000000000000000000006064820152608401610c11565b60165462010000900460ff1661229d576019805461221890613b97565b80601f016020809104026020016040519081016040528092919081815260200182805461224490613b97565b80156122915780601f1061226657610100808354040283529160200191612291565b820191906000526020600020905b81548152906001019060200180831161227457829003601f168201915b50505050509050919050565b60006122a7612ebd565b905060008151116122c757604051806020016040528060008152506122f5565b806122d184612ecc565b60186040516020016122e593929190613c80565b6040516020818303038152906040525b9392505050565b6000546001600160a01b031633146123565760405162461bcd60e51b815260206004820181905260248201527f4f776e61626c653a2063616c6c6572206973206e6f7420746865206f776e65726044820152606401610c11565b80516118cf90601890602084019061364c565b6000546001600160a01b031633146123c35760405162461bcd60e51b815260206004820181905260248201527f4f776e61626c653a2063616c6c6572206973206e6f7420746865206f776e65726044820152606401610c11565b6016805491151562010000027fffffffffffffffffffffffffffffffffffffffffffffffffffffffffff00ffff909216919091179055565b6000546001600160a01b031633146124555760405162461bcd60e51b815260206004820181905260248201527f4f776e61626c653a2063616c6c6572206973206e6f7420746865206f776e65726044820152606401610c11565b624c4b408111156124a85760405162461bcd60e51b815260206004820152601a60248201527f46726565206d696e7420616d6f756e7420746f6f206c617267650000000000006044820152606401610c11565b601555565b6000546001600160a01b031633146125075760405162461bcd60e51b815260206004820181905260248201527f4f776e61626c653a2063616c6c6572206973206e6f7420746865206f776e65726044820152606401610c11565b6016805461ff001981166101009182900460ff1615909102179055565b6000546001600160a01b0316331461257e5760405162461bcd60e51b815260206004820181905260248201527f4f776e61626c653a2063616c6c6572206973206e6f7420746865206f776e65726044820152606401610c11565b6001600160a01b0381166125fa5760405162461bcd60e51b815260206004820152602660248201527f4f776e61626c653a206e6577206f776e657220697320746865207a65726f206160448201527f64647265737300000000000000000000000000000000000000000000000000006064820152608401610c11565b61131c81612c20565b6000546001600160a01b0316331461265d5760405162461bcd60e51b815260206004820181905260248201527f4f776e61626c653a2063616c6c6572206973206e6f7420746865206f776e65726044820152606401610c11565b601494909455601394909455601191909155601255601680547fffffffffffffffffffffffffffffffffffffffffffffffffffffffffffff00001692151561ff0019169290921761010091151591909102179055565b80546001019055565b3b151590565b6000818152600560205260409020805473ffffffffffffffffffffffffffffffffffffffff19166001600160a01b038416908117909155819061270482611940565b6001600160a01b03167f8c5be1e5ebec7d5bd14f71427d1e84f3dd0314c0f7b2291e5b200ac8c7c3b92560405160405180910390a45050565b6008546001600160a01b0384166000908152600a6020526040812054909183916127679086613c17565b6127719190613d5a565b61277b9190613be8565b949350505050565b804710156127d35760405162461bcd60e51b815260206004820152601d60248201527f416464726573733a20696e73756666696369656e742062616c616e63650000006044820152606401610c11565b6000826001600160a01b03168260405160006040518083038185875af1925050503d8060008114612820576040519150601f19603f3d011682016040523d82523d6000602084013e612825565b606091505b5050905080610eae5760405162461bcd60e51b815260206004820152603a60248201527f416464726573733a20756e61626c6520746f2073656e642076616c75652c207260448201527f6563697069656e74206d617920686176652072657665727465640000000000006064820152608401610c11565b6000818152600360205260408120546001600160a01b03166129265760405162461bcd60e51b815260206004820152602c60248201527f4552433732313a206f70657261746f7220717565727920666f72206e6f6e657860448201527f697374656e7420746f6b656e00000000000000000000000000000000000000006064820152608401610c11565b600061293183611940565b9050806001600160a01b0316846001600160a01b0316148061296c5750836001600160a01b031661296184610cdb565b6001600160a01b0316145b8061277b57506001600160a01b0380821660009081526006602090815260408083209388168352929052205460ff16949350505050565b826001600160a01b03166129b682611940565b6001600160a01b031614612a325760405162461bcd60e51b815260206004820152602960248201527f4552433732313a207472616e73666572206f6620746f6b656e2074686174206960448201527f73206e6f74206f776e00000000000000000000000000000000000000000000006064820152608401610c11565b6001600160a01b038216612aad5760405162461bcd60e51b8152602060048201526024808201527f4552433732313a207472616e7366657220746f20746865207a65726f2061646460448201527f72657373000000000000000000000000000000000000000000000000000000006064820152608401610c11565b612ab86000826126c2565b6001600160a01b0383166000908152600460205260408120805460019290612ae1908490613be8565b90915550506001600160a01b0382166000908152600460205260408120805460019290612b0f908490613bff565b9091555050600081815260036020526040808220805473ffffffffffffffffffffffffffffffffffffffff19166001600160a01b0386811691821790925591518493918716917fddf252ad1be2c89b69c2b068fc378daa952ba7f163c4a11628f55a4df523b3ef91a4505050565b6118cf828260405180602001604052806000815250612ffe565b61131c81613087565b604080516001600160a01b038416602482015260448082018490528251808303909101815260649091019091526020810180517bffffffffffffffffffffffffffffffffffffffffffffffffffffffff167fa9059cbb00000000000000000000000000000000000000000000000000000000179052610eae9084906130c7565b600080546001600160a01b0383811673ffffffffffffffffffffffffffffffffffffffff19831681178455604051919092169283917f8be0079c531659141344cd1fd0a4f28419497f9722a3daafe3b4186f6b6457e09190a35050565b60008060018484604001518560000151866020015160405160008152602001604052604051612cc8949392919093845260ff9290921660208401526040830152606082015260800190565b6020604051602081039080840390855afa158015612cea573d6000803e3d6000fd5b5050604051601f1901519150506001600160a01b038116612d4d5760405162461bcd60e51b815260206004820152601860248201527f45434453413a20696e76616c6964207369676e617475726500000000000000006044820152606401610c11565b601b546001600160a01b039081169116149392505050565b816001600160a01b0316836001600160a01b03161415612dc75760405162461bcd60e51b815260206004820152601960248201527f4552433732313a20617070726f766520746f2063616c6c6572000000000000006044820152606401610c11565b6001600160a01b03838116600081815260066020908152604080832094871680845294825291829020805460ff191686151590811790915591519182527f17307eab39ab6107e8899845ad3d59bd9653f200f220920489ca2b5937696c31910160405180910390a3505050565b612e3f8484846129a3565b612e4b848484846131ac565b6120d35760405162461bcd60e51b815260206004820152603260248201527f4552433732313a207472616e7366657220746f206e6f6e20455243373231526560448201527f63656976657220696d706c656d656e74657200000000000000000000000000006064820152608401610c11565b606060178054610c5890613b97565b606081612f0c57505060408051808201909152600181527f3000000000000000000000000000000000000000000000000000000000000000602082015290565b8160005b8115612f365780612f2081613c36565b9150612f2f9050600a83613d5a565b9150612f10565b60008167ffffffffffffffff811115612f5157612f516138c2565b6040519080825280601f01601f191660200182016040528015612f7b576020820181803683370190505b5090505b841561277b57612f90600183613be8565b9150612f9d600a86613d6e565b612fa8906030613bff565b60f81b818381518110612fbd57612fbd613c6a565b60200101907effffffffffffffffffffffffffffffffffffffffffffffffffffffffffffff1916908160001a905350612ff7600a86613d5a565b9450612f7f565b613008838361334a565b61301560008484846131ac565b610eae5760405162461bcd60e51b815260206004820152603260248201527f4552433732313a207472616e7366657220746f206e6f6e20455243373231526560448201527f63656976657220696d706c656d656e74657200000000000000000000000000006064820152608401610c11565b61309081613499565b600081815260076020526040902080546130a990613b97565b15905061131c57600081815260076020526040812061131c916136d0565b600061311c826040518060400160405280602081526020017f5361666545524332303a206c6f772d6c6576656c2063616c6c206661696c6564815250856001600160a01b03166135419092919063ffffffff16565b805190915015610eae578080602001905181019061313a9190613d82565b610eae5760405162461bcd60e51b815260206004820152602a60248201527f5361666545524332303a204552433230206f7065726174696f6e20646964206e60448201527f6f742073756363656564000000000000000000000000000000000000000000006064820152608401610c11565b60006001600160a01b0384163b1561333f576040517f150b7a020000000000000000000000000000000000000000000000000000000081526001600160a01b0385169063150b7a0290613209903390899088908890600401613d9f565b6020604051808303816000875af1925050508015613244575060408051601f3d908101601f1916820190925261324191810190613ddb565b60015b6132f4573d808015613272576040519150601f19603f3d011682016040523d82523d6000602084013e613277565b606091505b5080516132ec5760405162461bcd60e51b815260206004820152603260248201527f4552433732313a207472616e7366657220746f206e6f6e20455243373231526560448201527f63656976657220696d706c656d656e74657200000000000000000000000000006064820152608401610c11565b805181602001fd5b7fffffffff00000000000000000000000000000000000000000000000000000000167f150b7a020000000000000000000000000000000000000000000000000000000014905061277b565b506001949350505050565b6001600160a01b0382166133a05760405162461bcd60e51b815260206004820181905260248201527f4552433732313a206d696e7420746f20746865207a65726f20616464726573736044820152606401610c11565b6000818152600360205260409020546001600160a01b0316156134055760405162461bcd60e51b815260206004820152601c60248201527f4552433732313a20746f6b656e20616c7265616479206d696e746564000000006044820152606401610c11565b6001600160a01b038216600090815260046020526040812080546001929061342e908490613bff565b9091555050600081815260036020526040808220805473ffffffffffffffffffffffffffffffffffffffff19166001600160a01b03861690811790915590518392907fddf252ad1be2c89b69c2b068fc378daa952ba7f163c4a11628f55a4df523b3ef908290a45050565b60006134a482611940565b90506134b16000836126c2565b6001600160a01b03811660009081526004602052604081208054600192906134da908490613be8565b9091555050600082815260036020526040808220805473ffffffffffffffffffffffffffffffffffffffff19169055518391906001600160a01b038416907fddf252ad1be2c89b69c2b068fc378daa952ba7f163c4a11628f55a4df523b3ef908390a45050565b606061277b848460008585843b61359a5760405162461bcd60e51b815260206004820152601d60248201527f416464726573733a2063616c6c20746f206e6f6e2d636f6e74726163740000006044820152606401610c11565b600080866001600160a01b031685876040516135b69190613df8565b60006040518083038185875af1925050503d80600081146135f3576040519150601f19603f3d011682016040523d82523d6000602084013e6135f8565b606091505b5091509150613608828286613613565b979650505050505050565b606083156136225750816122f5565b8251156136325782518084602001fd5b8160405162461bcd60e51b8152600401610c1191906137f0565b82805461365890613b97565b90600052602060002090601f01602090048101928261367a57600085556136c0565b82601f1061369357805160ff19168380011785556136c0565b828001600101855582156136c0579182015b828111156136c05782518255916020019190600101906136a5565b506136cc929150613706565b5090565b5080546136dc90613b97565b6000825580601f106136ec575050565b601f01602090049060005260206000209081019061131c91905b5b808211156136cc5760008155600101613707565b7fffffffff000000000000000000000000000000000000000000000000000000008116811461131c57600080fd5b60006020828403121561375b57600080fd5b81356122f58161371b565b6001600160a01b038116811461131c57600080fd5b60006020828403121561378d57600080fd5b81356122f581613766565b60005b838110156137b357818101518382015260200161379b565b838111156120d35750506000910152565b600081518084526137dc816020860160208601613798565b601f01601f19169290920160200192915050565b6020815260006122f560208301846137c4565b60006020828403121561381557600080fd5b5035919050565b6000806040838503121561382f57600080fd5b823561383a81613766565b946020939093013593505050565b60008060006060848603121561385d57600080fd5b833561386881613766565b9250602084013561387881613766565b929592945050506040919091013590565b6000806040838503121561389c57600080fd5b82356138a781613766565b915060208301356138b781613766565b809150509250929050565b634e487b7160e01b600052604160045260246000fd5b600067ffffffffffffffff808411156138f3576138f36138c2565b604051601f8501601f19908116603f0116810190828211818310171561391b5761391b6138c2565b8160405280935085815286868601111561393457600080fd5b858560208301376000602087830101525050509392505050565b60006020828403121561396057600080fd5b813567ffffffffffffffff81111561397757600080fd5b8201601f8101841361398857600080fd5b61277b848235602084016138d8565b803560ff811681146139a857600080fd5b919050565b600080600083850360a08112156139c357600080fd5b6139cc85613997565b93506139da60208601613997565b925060607fffffffffffffffffffffffffffffffffffffffffffffffffffffffffffffffc082011215613a0c57600080fd5b506040516060810181811067ffffffffffffffff82111715613a3057613a306138c2565b6040908152850135815260608501356020820152613a5060808601613997565b6040820152809150509250925092565b801515811461131c57600080fd5b60008060408385031215613a8157600080fd5b8235613a8c81613766565b915060208301356138b781613a60565b60008060008060808587031215613ab257600080fd5b8435613abd81613766565b93506020850135613acd81613766565b925060408501359150606085013567ffffffffffffffff811115613af057600080fd5b8501601f81018713613b0157600080fd5b613b10878235602084016138d8565b91505092959194509250565b600060208284031215613b2e57600080fd5b81356122f581613a60565b60008060008060008060c08789031215613b5257600080fd5b863595506020870135945060408701359350606087013592506080870135613b7981613a60565b915060a0870135613b8981613a60565b809150509295509295509295565b600181811c90821680613bab57607f821691505b60208210811415613bcc57634e487b7160e01b600052602260045260246000fd5b50919050565b634e487b7160e01b600052601160045260246000fd5b600082821015613bfa57613bfa613bd2565b500390565b60008219821115613c1257613c12613bd2565b500190565b6000816000190483118215151615613c3157613c31613bd2565b500290565b6000600019821415613c4a57613c4a613bd2565b5060010190565b600060208284031215613c6357600080fd5b5051919050565b634e487b7160e01b600052603260045260246000fd5b600084516020613c938285838a01613798565b855191840191613ca68184848a01613798565b8554920191600090600181811c9080831680613cc357607f831692505b858310811415613ce157634e487b7160e01b85526022600452602485fd5b808015613cf55760018114613d0657613d33565b60ff19851688528388019550613d33565b60008b81526020902060005b85811015613d2b5781548a820152908401908801613d12565b505083880195505b50939b9a5050505050505050505050565b634e487b7160e01b600052601260045260246000fd5b600082613d6957613d69613d44565b500490565b600082613d7d57613d7d613d44565b500690565b600060208284031215613d9457600080fd5b81516122f581613a60565b60006001600160a01b03808716835280861660208401525083604083015260806060830152613dd160808301846137c4565b9695505050505050565b600060208284031215613ded57600080fd5b81516122f58161371b565b60008251613e0a818460208701613798565b919091019291505056fea2646970667358221220deb14fd86b177e64d523af8d81893d13d979f64e439c20bcf4da4fa70a59dacf64736f6c634300080b00334552433732313a207472616e7366657220746f206e6f6e204552433732315265",
  "linkReferences": {},
  "deployedLinkReferences": {}
}